{
    "_format": "hh-sol-artifact-1",
    "contractName": "StockCirtificate",
    "sourceName": "contracts/StockCirtificate.sol",
    "abi": [
        {
            "inputs": [
                {
                    "internalType": "address",
                    "name": "owner",
                    "type": "address"
                },
                {
                    "internalType": "string",
                    "name": "_companySymbol",
                    "type": "string"
                },
                {
                    "internalType": "uint256",
                    "name": "_stockNum",
                    "type": "uint256"
                }
            ],
            "stateMutability": "nonpayable",
            "type": "constructor"
        },
        {
            "anonymous": false,
            "inputs": [
                {
                    "indexed": true,
                    "internalType": "address",
                    "name": "account",
                    "type": "address"
                },
                {
                    "indexed": true,
                    "internalType": "address",
                    "name": "operator",
                    "type": "address"
                },
                {
                    "indexed": false,
                    "internalType": "bool",
                    "name": "approved",
                    "type": "bool"
                }
            ],
            "name": "ApprovalForAll",
            "type": "event"
        },
        {
            "anonymous": false,
            "inputs": [
                {
                    "indexed": true,
                    "internalType": "address",
                    "name": "previousOwner",
                    "type": "address"
                },
                {
                    "indexed": true,
                    "internalType": "address",
                    "name": "newOwner",
                    "type": "address"
                }
            ],
            "name": "OwnershipTransferred",
            "type": "event"
        },
        {
            "anonymous": false,
            "inputs": [
                {
                    "indexed": true,
                    "internalType": "address",
                    "name": "operator",
                    "type": "address"
                },
                {
                    "indexed": true,
                    "internalType": "address",
                    "name": "from",
                    "type": "address"
                },
                {
                    "indexed": true,
                    "internalType": "address",
                    "name": "to",
                    "type": "address"
                },
                {
                    "indexed": false,
                    "internalType": "uint256[]",
                    "name": "ids",
                    "type": "uint256[]"
                },
                {
                    "indexed": false,
                    "internalType": "uint256[]",
                    "name": "values",
                    "type": "uint256[]"
                }
            ],
            "name": "TransferBatch",
            "type": "event"
        },
        {
            "anonymous": false,
            "inputs": [
                {
                    "indexed": true,
                    "internalType": "address",
                    "name": "operator",
                    "type": "address"
                },
                {
                    "indexed": true,
                    "internalType": "address",
                    "name": "from",
                    "type": "address"
                },
                {
                    "indexed": true,
                    "internalType": "address",
                    "name": "to",
                    "type": "address"
                },
                {
                    "indexed": false,
                    "internalType": "uint256",
                    "name": "id",
                    "type": "uint256"
                },
                {
                    "indexed": false,
                    "internalType": "uint256",
                    "name": "value",
                    "type": "uint256"
                }
            ],
            "name": "TransferSingle",
            "type": "event"
        },
        {
            "anonymous": false,
            "inputs": [
                {
                    "indexed": false,
                    "internalType": "string",
                    "name": "value",
                    "type": "string"
                },
                {
                    "indexed": true,
                    "internalType": "uint256",
                    "name": "id",
                    "type": "uint256"
                }
            ],
            "name": "URI",
            "type": "event"
        },
        {
            "inputs": [
                {
                    "internalType": "address",
                    "name": "account",
                    "type": "address"
                },
                {
                    "internalType": "uint256",
                    "name": "id",
                    "type": "uint256"
                }
            ],
            "name": "balanceOf",
            "outputs": [
                {
                    "internalType": "uint256",
                    "name": "",
                    "type": "uint256"
                }
            ],
            "stateMutability": "view",
            "type": "function"
        },
        {
            "inputs": [
                {
                    "internalType": "address[]",
                    "name": "accounts",
                    "type": "address[]"
                },
                {
                    "internalType": "uint256[]",
                    "name": "ids",
                    "type": "uint256[]"
                }
            ],
            "name": "balanceOfBatch",
            "outputs": [
                {
                    "internalType": "uint256[]",
                    "name": "",
                    "type": "uint256[]"
                }
            ],
            "stateMutability": "view",
            "type": "function"
        },
        {
            "inputs": [
                {
                    "internalType": "address",
                    "name": "account",
                    "type": "address"
                },
                {
                    "internalType": "uint256",
                    "name": "id",
                    "type": "uint256"
                },
                {
                    "internalType": "uint256",
                    "name": "value",
                    "type": "uint256"
                }
            ],
            "name": "burn",
            "outputs": [],
            "stateMutability": "nonpayable",
            "type": "function"
        },
        {
            "inputs": [
                {
                    "internalType": "address",
                    "name": "account",
                    "type": "address"
                },
                {
                    "internalType": "uint256[]",
                    "name": "ids",
                    "type": "uint256[]"
                },
                {
                    "internalType": "uint256[]",
                    "name": "values",
                    "type": "uint256[]"
                }
            ],
            "name": "burnBatch",
            "outputs": [],
            "stateMutability": "nonpayable",
            "type": "function"
        },
        {
            "inputs": [],
            "name": "companySymbol",
            "outputs": [
                {
                    "internalType": "string",
                    "name": "",
                    "type": "string"
                }
            ],
            "stateMutability": "view",
            "type": "function"
        },
        {
            "inputs": [
                {
                    "internalType": "address",
                    "name": "account",
                    "type": "address"
                },
                {
                    "internalType": "address",
                    "name": "operator",
                    "type": "address"
                }
            ],
            "name": "isApprovedForAll",
            "outputs": [
                {
                    "internalType": "bool",
                    "name": "",
                    "type": "bool"
                }
            ],
            "stateMutability": "view",
            "type": "function"
        },
        {
            "inputs": [
                {
                    "internalType": "address",
                    "name": "account",
                    "type": "address"
                },
                {
                    "internalType": "uint256",
                    "name": "id",
                    "type": "uint256"
                },
                {
                    "internalType": "uint256",
                    "name": "amount",
                    "type": "uint256"
                },
                {
                    "internalType": "bytes",
                    "name": "data",
                    "type": "bytes"
                }
            ],
            "name": "mint",
            "outputs": [],
            "stateMutability": "nonpayable",
            "type": "function"
        },
        {
            "inputs": [
                {
                    "internalType": "address",
                    "name": "to",
                    "type": "address"
                },
                {
                    "internalType": "uint256[]",
                    "name": "ids",
                    "type": "uint256[]"
                },
                {
                    "internalType": "uint256[]",
                    "name": "amounts",
                    "type": "uint256[]"
                },
                {
                    "internalType": "bytes",
                    "name": "data",
                    "type": "bytes"
                }
            ],
            "name": "mintBatch",
            "outputs": [],
            "stateMutability": "nonpayable",
            "type": "function"
        },
        {
            "inputs": [],
            "name": "owner",
            "outputs": [
                {
                    "internalType": "address",
                    "name": "",
                    "type": "address"
                }
            ],
            "stateMutability": "view",
            "type": "function"
        },
        {
            "inputs": [],
            "name": "renounceOwnership",
            "outputs": [],
            "stateMutability": "nonpayable",
            "type": "function"
        },
        {
            "inputs": [
                {
                    "internalType": "address",
                    "name": "from",
                    "type": "address"
                },
                {
                    "internalType": "address",
                    "name": "to",
                    "type": "address"
                },
                {
                    "internalType": "uint256[]",
                    "name": "ids",
                    "type": "uint256[]"
                },
                {
                    "internalType": "uint256[]",
                    "name": "amounts",
                    "type": "uint256[]"
                },
                {
                    "internalType": "bytes",
                    "name": "data",
                    "type": "bytes"
                }
            ],
            "name": "safeBatchTransferFrom",
            "outputs": [],
            "stateMutability": "nonpayable",
            "type": "function"
        },
        {
            "inputs": [
                {
                    "internalType": "address",
                    "name": "from",
                    "type": "address"
                },
                {
                    "internalType": "address",
                    "name": "to",
                    "type": "address"
                },
                {
                    "internalType": "uint256",
                    "name": "id",
                    "type": "uint256"
                },
                {
                    "internalType": "uint256",
                    "name": "amount",
                    "type": "uint256"
                },
                {
                    "internalType": "bytes",
                    "name": "data",
                    "type": "bytes"
                }
            ],
            "name": "safeTransferFrom",
            "outputs": [],
            "stateMutability": "nonpayable",
            "type": "function"
        },
        {
            "inputs": [],
            "name": "scAddr",
            "outputs": [
                {
                    "internalType": "address",
                    "name": "",
                    "type": "address"
                }
            ],
            "stateMutability": "view",
            "type": "function"
        },
        {
            "inputs": [
                {
                    "internalType": "address",
                    "name": "operator",
                    "type": "address"
                },
                {
                    "internalType": "bool",
                    "name": "approved",
                    "type": "bool"
                }
            ],
            "name": "setApprovalForAll",
            "outputs": [],
            "stateMutability": "nonpayable",
            "type": "function"
        },
        {
            "inputs": [
                {
                    "internalType": "string",
                    "name": "newuri",
                    "type": "string"
                }
            ],
            "name": "setURI",
            "outputs": [],
            "stateMutability": "nonpayable",
            "type": "function"
        },
        {
            "inputs": [],
            "name": "stockNum",
            "outputs": [
                {
                    "internalType": "uint256",
                    "name": "",
                    "type": "uint256"
                }
            ],
            "stateMutability": "view",
            "type": "function"
        },
        {
            "inputs": [
                {
                    "internalType": "bytes4",
                    "name": "interfaceId",
                    "type": "bytes4"
                }
            ],
            "name": "supportsInterface",
            "outputs": [
                {
                    "internalType": "bool",
                    "name": "",
                    "type": "bool"
                }
            ],
            "stateMutability": "view",
            "type": "function"
        },
        {
            "inputs": [
                {
                    "internalType": "address",
                    "name": "newOwner",
                    "type": "address"
                }
            ],
            "name": "transferOwnership",
            "outputs": [],
            "stateMutability": "nonpayable",
            "type": "function"
        },
        {
            "inputs": [
                {
                    "internalType": "uint256",
                    "name": "",
                    "type": "uint256"
                }
            ],
            "name": "uri",
            "outputs": [
                {
                    "internalType": "string",
                    "name": "",
                    "type": "string"
                }
            ],
            "stateMutability": "view",
            "type": "function"
        }
    ],
    "bytecode": "0x60806040523480156200001157600080fd5b50604051620043393803806200433983398181016040528101906200003791906200032e565b604051806020016040528060008152506200005881620000f460201b60201c565b50620000796200006d6200011060201b60201c565b6200011860201b60201c565b816005908051906020019062000091929190620001de565b508060048190555030600660006101000a81548173ffffffffffffffffffffffffffffffffffffffff021916908373ffffffffffffffffffffffffffffffffffffffff160217905550620000eb836200011860201b60201c565b5050506200057f565b80600290805190602001906200010c929190620001de565b5050565b600033905090565b6000600360009054906101000a900473ffffffffffffffffffffffffffffffffffffffff16905081600360006101000a81548173ffffffffffffffffffffffffffffffffffffffff021916908373ffffffffffffffffffffffffffffffffffffffff1602179055508173ffffffffffffffffffffffffffffffffffffffff168173ffffffffffffffffffffffffffffffffffffffff167f8be0079c531659141344cd1fd0a4f28419497f9722a3daafe3b4186f6b6457e060405160405180910390a35050565b828054620001ec9062000470565b90600052602060002090601f0160209004810192826200021057600085556200025c565b82601f106200022b57805160ff19168380011785556200025c565b828001600101855582156200025c579182015b828111156200025b5782518255916020019190600101906200023e565b5b5090506200026b91906200026f565b5090565b5b808211156200028a57600081600090555060010162000270565b5090565b6000620002a56200029f84620003c6565b6200039d565b905082815260208101848484011115620002be57600080fd5b620002cb8482856200043a565b509392505050565b600081519050620002e4816200054b565b92915050565b600082601f830112620002fc57600080fd5b81516200030e8482602086016200028e565b91505092915050565b600081519050620003288162000565565b92915050565b6000806000606084860312156200034457600080fd5b60006200035486828701620002d3565b935050602084015167ffffffffffffffff8111156200037257600080fd5b6200038086828701620002ea565b9250506040620003938682870162000317565b9150509250925092565b6000620003a9620003bc565b9050620003b78282620004a6565b919050565b6000604051905090565b600067ffffffffffffffff821115620003e457620003e36200050b565b5b620003ef826200053a565b9050602081019050919050565b6000620004098262000410565b9050919050565b600073ffffffffffffffffffffffffffffffffffffffff82169050919050565b6000819050919050565b60005b838110156200045a5780820151818401526020810190506200043d565b838111156200046a576000848401525b50505050565b600060028204905060018216806200048957607f821691505b60208210811415620004a0576200049f620004dc565b5b50919050565b620004b1826200053a565b810181811067ffffffffffffffff82111715620004d357620004d26200050b565b5b80604052505050565b7f4e487b7100000000000000000000000000000000000000000000000000000000600052602260045260246000fd5b7f4e487b7100000000000000000000000000000000000000000000000000000000600052604160045260246000fd5b6000601f19601f8301169050919050565b6200055681620003fc565b81146200056257600080fd5b50565b620005708162000430565b81146200057c57600080fd5b50565b613daa806200058f6000396000f3fe608060405234801561001057600080fd5b50600436106101205760003560e01c8063715018a6116100ad578063b780b06411610071578063b780b064146102f1578063e985e9c51461030f578063f242432a1461033f578063f2fde38b1461035b578063f5298aca1461037757610120565b8063715018a614610273578063731133e91461027d578063875a5436146102995780638da5cb5b146102b7578063a22cb465146102d557610120565b80630e89341c116100f45780630e89341c146101bf5780631f7fdffa146101ef5780632eb2c2d61461020b5780634e1273f4146102275780636b20c4541461025757610120565b8062fdd58e1461012557806301ffc9a71461015557806302fe53051461018557806304b376c8146101a1575b600080fd5b61013f600480360381019061013a9190612b3c565b610393565b60405161014c91906133ee565b60405180910390f35b61016f600480360381019061016a9190612cae565b61045c565b60405161017c91906131d1565b60405180910390f35b61019f600480360381019061019a9190612d00565b61053e565b005b6101a96105c6565b6040516101b6919061309b565b60405180910390f35b6101d960048036038101906101d49190612d41565b6105ec565b6040516101e691906131ec565b60405180910390f35b61020960048036038101906102049190612a55565b610680565b005b61022560048036038101906102209190612888565b61070e565b005b610241600480360381019061023c9190612c42565b6107af565b60405161024e9190613178565b60405180910390f35b610271600480360381019061026c91906129d6565b610960565b005b61027b6109fd565b005b61029760048036038101906102929190612bc7565b610a85565b005b6102a1610b13565b6040516102ae91906131ec565b60405180910390f35b6102bf610ba1565b6040516102cc919061309b565b60405180910390f35b6102ef60048036038101906102ea9190612b00565b610bcb565b005b6102f9610be1565b60405161030691906133ee565b60405180910390f35b6103296004803603810190610324919061284c565b610be7565b60405161033691906131d1565b60405180910390f35b61035960048036038101906103549190612947565b610c7b565b005b61037560048036038101906103709190612823565b610d1c565b005b610391600480360381019061038c9190612b78565b610e14565b005b60008073ffffffffffffffffffffffffffffffffffffffff168373ffffffffffffffffffffffffffffffffffffffff161415610404576040517f08c379a00000000000000000000000000000000000000000000000000000000081526004016103fb9061324e565b60405180910390fd5b60008083815260200190815260200160002060008473ffffffffffffffffffffffffffffffffffffffff1673ffffffffffffffffffffffffffffffffffffffff16815260200190815260200160002054905092915050565b60007fd9b67a26000000000000000000000000000000000000000000000000000000007bffffffffffffffffffffffffffffffffffffffffffffffffffffffff1916827bffffffffffffffffffffffffffffffffffffffffffffffffffffffff1916148061052757507f0e89341c000000000000000000000000000000000000000000000000000000007bffffffffffffffffffffffffffffffffffffffffffffffffffffffff1916827bffffffffffffffffffffffffffffffffffffffffffffffffffffffff1916145b80610537575061053682610eb1565b5b9050919050565b610546610f1b565b73ffffffffffffffffffffffffffffffffffffffff16610564610ba1565b73ffffffffffffffffffffffffffffffffffffffff16146105ba576040517f08c379a00000000000000000000000000000000000000000000000000000000081526004016105b19061334e565b60405180910390fd5b6105c381610f23565b50565b600660009054906101000a900473ffffffffffffffffffffffffffffffffffffffff1681565b6060600280546105fb9061368e565b80601f01602080910402602001604051908101604052809291908181526020018280546106279061368e565b80156106745780601f1061064957610100808354040283529160200191610674565b820191906000526020600020905b81548152906001019060200180831161065757829003601f168201915b50505050509050919050565b610688610f1b565b73ffffffffffffffffffffffffffffffffffffffff166106a6610ba1565b73ffffffffffffffffffffffffffffffffffffffff16146106fc576040517f08c379a00000000000000000000000000000000000000000000000000000000081526004016106f39061334e565b60405180910390fd5b61070884848484610f3d565b50505050565b610716610f1b565b73ffffffffffffffffffffffffffffffffffffffff168573ffffffffffffffffffffffffffffffffffffffff16148061075c575061075b85610756610f1b565b610be7565b5b61079b576040517f08c379a0000000000000000000000000000000000000000000000000000000008152600401610792906132ee565b60405180910390fd5b6107a885858585856111a7565b5050505050565b606081518351146107f5576040517f08c379a00000000000000000000000000000000000000000000000000000000081526004016107ec9061338e565b60405180910390fd5b6000835167ffffffffffffffff811115610838577f4e487b7100000000000000000000000000000000000000000000000000000000600052604160045260246000fd5b6040519080825280602002602001820160405280156108665781602001602082028036833780820191505090505b50905060005b8451811015610955576108ff8582815181106108b1577f4e487b7100000000000000000000000000000000000000000000000000000000600052603260045260246000fd5b60200260200101518583815181106108f2577f4e487b7100000000000000000000000000000000000000000000000000000000600052603260045260246000fd5b6020026020010151610393565b828281518110610938577f4e487b7100000000000000000000000000000000000000000000000000000000600052603260045260246000fd5b6020026020010181815250508061094e906136f1565b905061086c565b508091505092915050565b610968610f1b565b73ffffffffffffffffffffffffffffffffffffffff168373ffffffffffffffffffffffffffffffffffffffff1614806109ae57506109ad836109a8610f1b565b610be7565b5b6109ed576040517f08c379a00000000000000000000000000000000000000000000000000000000081526004016109e4906132ae565b60405180910390fd5b6109f8838383611507565b505050565b610a05610f1b565b73ffffffffffffffffffffffffffffffffffffffff16610a23610ba1565b73ffffffffffffffffffffffffffffffffffffffff1614610a79576040517f08c379a0000000000000000000000000000000000000000000000000000000008152600401610a709061334e565b60405180910390fd5b610a836000611804565b565b610a8d610f1b565b73ffffffffffffffffffffffffffffffffffffffff16610aab610ba1565b73ffffffffffffffffffffffffffffffffffffffff1614610b01576040517f08c379a0000000000000000000000000000000000000000000000000000000008152600401610af89061334e565b60405180910390fd5b610b0d848484846118ca565b50505050565b60058054610b209061368e565b80601f0160208091040260200160405190810160405280929190818152602001828054610b4c9061368e565b8015610b995780601f10610b6e57610100808354040283529160200191610b99565b820191906000526020600020905b815481529060010190602001808311610b7c57829003601f168201915b505050505081565b6000600360009054906101000a900473ffffffffffffffffffffffffffffffffffffffff16905090565b610bdd610bd6610f1b565b8383611a60565b5050565b60045481565b6000600160008473ffffffffffffffffffffffffffffffffffffffff1673ffffffffffffffffffffffffffffffffffffffff16815260200190815260200160002060008373ffffffffffffffffffffffffffffffffffffffff1673ffffffffffffffffffffffffffffffffffffffff16815260200190815260200160002060009054906101000a900460ff16905092915050565b610c83610f1b565b73ffffffffffffffffffffffffffffffffffffffff168573ffffffffffffffffffffffffffffffffffffffff161480610cc95750610cc885610cc3610f1b565b610be7565b5b610d08576040517f08c379a0000000000000000000000000000000000000000000000000000000008152600401610cff906132ae565b60405180910390fd5b610d158585858585611bcd565b5050505050565b610d24610f1b565b73ffffffffffffffffffffffffffffffffffffffff16610d42610ba1565b73ffffffffffffffffffffffffffffffffffffffff1614610d98576040517f08c379a0000000000000000000000000000000000000000000000000000000008152600401610d8f9061334e565b60405180910390fd5b600073ffffffffffffffffffffffffffffffffffffffff168173ffffffffffffffffffffffffffffffffffffffff161415610e08576040517f08c379a0000000000000000000000000000000000000000000000000000000008152600401610dff9061326e565b60405180910390fd5b610e1181611804565b50565b610e1c610f1b565b73ffffffffffffffffffffffffffffffffffffffff168373ffffffffffffffffffffffffffffffffffffffff161480610e625750610e6183610e5c610f1b565b610be7565b5b610ea1576040517f08c379a0000000000000000000000000000000000000000000000000000000008152600401610e98906132ae565b60405180910390fd5b610eac838383611e4f565b505050565b60007f01ffc9a7000000000000000000000000000000000000000000000000000000007bffffffffffffffffffffffffffffffffffffffffffffffffffffffff1916827bffffffffffffffffffffffffffffffffffffffffffffffffffffffff1916149050919050565b600033905090565b8060029080519060200190610f3992919061251b565b5050565b600073ffffffffffffffffffffffffffffffffffffffff168473ffffffffffffffffffffffffffffffffffffffff161415610fad576040517f08c379a0000000000000000000000000000000000000000000000000000000008152600401610fa4906133ce565b60405180910390fd5b8151835114610ff1576040517f08c379a0000000000000000000000000000000000000000000000000000000008152600401610fe8906133ae565b60405180910390fd5b6000610ffb610f1b565b905061100c8160008787878761206c565b60005b845181101561111157838181518110611051577f4e487b7100000000000000000000000000000000000000000000000000000000600052603260045260246000fd5b6020026020010151600080878481518110611095577f4e487b7100000000000000000000000000000000000000000000000000000000600052603260045260246000fd5b6020026020010151815260200190815260200160002060008873ffffffffffffffffffffffffffffffffffffffff1673ffffffffffffffffffffffffffffffffffffffff16815260200190815260200160002060008282546110f79190613582565b925050819055508080611109906136f1565b91505061100f565b508473ffffffffffffffffffffffffffffffffffffffff16600073ffffffffffffffffffffffffffffffffffffffff168273ffffffffffffffffffffffffffffffffffffffff167f4a39dc06d4c0dbc64b70af90fd698a233a518aa5d07e595d983b8c0526c8f7fb878760405161118992919061319a565b60405180910390a46111a081600087878787612074565b5050505050565b81518351146111eb576040517f08c379a00000000000000000000000000000000000000000000000000000000081526004016111e2906133ae565b60405180910390fd5b600073ffffffffffffffffffffffffffffffffffffffff168473ffffffffffffffffffffffffffffffffffffffff16141561125b576040517f08c379a0000000000000000000000000000000000000000000000000000000008152600401611252906132ce565b60405180910390fd5b6000611265610f1b565b905061127581878787878761206c565b60005b84518110156114725760008582815181106112bc577f4e487b7100000000000000000000000000000000000000000000000000000000600052603260045260246000fd5b602002602001015190506000858381518110611301577f4e487b7100000000000000000000000000000000000000000000000000000000600052603260045260246000fd5b60200260200101519050600080600084815260200190815260200160002060008b73ffffffffffffffffffffffffffffffffffffffff1673ffffffffffffffffffffffffffffffffffffffff168152602001908152602001600020549050818110156113a2576040517f08c379a00000000000000000000000000000000000000000000000000000000081526004016113999061332e565b60405180910390fd5b81810360008085815260200190815260200160002060008c73ffffffffffffffffffffffffffffffffffffffff1673ffffffffffffffffffffffffffffffffffffffff168152602001908152602001600020819055508160008085815260200190815260200160002060008b73ffffffffffffffffffffffffffffffffffffffff1673ffffffffffffffffffffffffffffffffffffffff16815260200190815260200160002060008282546114579190613582565b925050819055505050508061146b906136f1565b9050611278565b508473ffffffffffffffffffffffffffffffffffffffff168673ffffffffffffffffffffffffffffffffffffffff168273ffffffffffffffffffffffffffffffffffffffff167f4a39dc06d4c0dbc64b70af90fd698a233a518aa5d07e595d983b8c0526c8f7fb87876040516114e992919061319a565b60405180910390a46114ff818787878787612074565b505050505050565b600073ffffffffffffffffffffffffffffffffffffffff168373ffffffffffffffffffffffffffffffffffffffff161415611577576040517f08c379a000000000000000000000000000000000000000000000000000000000815260040161156e9061330e565b60405180910390fd5b80518251146115bb576040517f08c379a00000000000000000000000000000000000000000000000000000000081526004016115b2906133ae565b60405180910390fd5b60006115c5610f1b565b90506115e58185600086866040518060200160405280600081525061206c565b60005b835181101561177e57600084828151811061162c577f4e487b7100000000000000000000000000000000000000000000000000000000600052603260045260246000fd5b602002602001015190506000848381518110611671577f4e487b7100000000000000000000000000000000000000000000000000000000600052603260045260246000fd5b60200260200101519050600080600084815260200190815260200160002060008973ffffffffffffffffffffffffffffffffffffffff1673ffffffffffffffffffffffffffffffffffffffff16815260200190815260200160002054905081811015611712576040517f08c379a00000000000000000000000000000000000000000000000000000000081526004016117099061328e565b60405180910390fd5b81810360008085815260200190815260200160002060008a73ffffffffffffffffffffffffffffffffffffffff1673ffffffffffffffffffffffffffffffffffffffff168152602001908152602001600020819055505050508080611776906136f1565b9150506115e8565b50600073ffffffffffffffffffffffffffffffffffffffff168473ffffffffffffffffffffffffffffffffffffffff168273ffffffffffffffffffffffffffffffffffffffff167f4a39dc06d4c0dbc64b70af90fd698a233a518aa5d07e595d983b8c0526c8f7fb86866040516117f692919061319a565b60405180910390a450505050565b6000600360009054906101000a900473ffffffffffffffffffffffffffffffffffffffff16905081600360006101000a81548173ffffffffffffffffffffffffffffffffffffffff021916908373ffffffffffffffffffffffffffffffffffffffff1602179055508173ffffffffffffffffffffffffffffffffffffffff168173ffffffffffffffffffffffffffffffffffffffff167f8be0079c531659141344cd1fd0a4f28419497f9722a3daafe3b4186f6b6457e060405160405180910390a35050565b600073ffffffffffffffffffffffffffffffffffffffff168473ffffffffffffffffffffffffffffffffffffffff16141561193a576040517f08c379a0000000000000000000000000000000000000000000000000000000008152600401611931906133ce565b60405180910390fd5b6000611944610f1b565b9050611965816000876119568861225b565b61195f8861225b565b8761206c565b8260008086815260200190815260200160002060008773ffffffffffffffffffffffffffffffffffffffff1673ffffffffffffffffffffffffffffffffffffffff16815260200190815260200160002060008282546119c49190613582565b925050819055508473ffffffffffffffffffffffffffffffffffffffff16600073ffffffffffffffffffffffffffffffffffffffff168273ffffffffffffffffffffffffffffffffffffffff167fc3d58168c5ae7397731d063d5bbf3d657854427343f4c083240f7aacaa2d0f628787604051611a42929190613409565b60405180910390a4611a5981600087878787612321565b5050505050565b8173ffffffffffffffffffffffffffffffffffffffff168373ffffffffffffffffffffffffffffffffffffffff161415611acf576040517f08c379a0000000000000000000000000000000000000000000000000000000008152600401611ac69061336e565b60405180910390fd5b80600160008573ffffffffffffffffffffffffffffffffffffffff1673ffffffffffffffffffffffffffffffffffffffff16815260200190815260200160002060008473ffffffffffffffffffffffffffffffffffffffff1673ffffffffffffffffffffffffffffffffffffffff16815260200190815260200160002060006101000a81548160ff0219169083151502179055508173ffffffffffffffffffffffffffffffffffffffff168373ffffffffffffffffffffffffffffffffffffffff167f17307eab39ab6107e8899845ad3d59bd9653f200f220920489ca2b5937696c3183604051611bc091906131d1565b60405180910390a3505050565b600073ffffffffffffffffffffffffffffffffffffffff168473ffffffffffffffffffffffffffffffffffffffff161415611c3d576040517f08c379a0000000000000000000000000000000000000000000000000000000008152600401611c34906132ce565b60405180910390fd5b6000611c47610f1b565b9050611c67818787611c588861225b565b611c618861225b565b8761206c565b600080600086815260200190815260200160002060008873ffffffffffffffffffffffffffffffffffffffff1673ffffffffffffffffffffffffffffffffffffffff16815260200190815260200160002054905083811015611cfe576040517f08c379a0000000000000000000000000000000000000000000000000000000008152600401611cf59061332e565b60405180910390fd5b83810360008087815260200190815260200160002060008973ffffffffffffffffffffffffffffffffffffffff1673ffffffffffffffffffffffffffffffffffffffff168152602001908152602001600020819055508360008087815260200190815260200160002060008873ffffffffffffffffffffffffffffffffffffffff1673ffffffffffffffffffffffffffffffffffffffff1681526020019081526020016000206000828254611db39190613582565b925050819055508573ffffffffffffffffffffffffffffffffffffffff168773ffffffffffffffffffffffffffffffffffffffff168373ffffffffffffffffffffffffffffffffffffffff167fc3d58168c5ae7397731d063d5bbf3d657854427343f4c083240f7aacaa2d0f628888604051611e30929190613409565b60405180910390a4611e46828888888888612321565b50505050505050565b600073ffffffffffffffffffffffffffffffffffffffff168373ffffffffffffffffffffffffffffffffffffffff161415611ebf576040517f08c379a0000000000000000000000000000000000000000000000000000000008152600401611eb69061330e565b60405180910390fd5b6000611ec9610f1b565b9050611ef981856000611edb8761225b565b611ee48761225b565b6040518060200160405280600081525061206c565b600080600085815260200190815260200160002060008673ffffffffffffffffffffffffffffffffffffffff1673ffffffffffffffffffffffffffffffffffffffff16815260200190815260200160002054905082811015611f90576040517f08c379a0000000000000000000000000000000000000000000000000000000008152600401611f879061328e565b60405180910390fd5b82810360008086815260200190815260200160002060008773ffffffffffffffffffffffffffffffffffffffff1673ffffffffffffffffffffffffffffffffffffffff16815260200190815260200160002081905550600073ffffffffffffffffffffffffffffffffffffffff168573ffffffffffffffffffffffffffffffffffffffff168373ffffffffffffffffffffffffffffffffffffffff167fc3d58168c5ae7397731d063d5bbf3d657854427343f4c083240f7aacaa2d0f62878760405161205d929190613409565b60405180910390a45050505050565b505050505050565b6120938473ffffffffffffffffffffffffffffffffffffffff16612508565b15612253578373ffffffffffffffffffffffffffffffffffffffff1663bc197c8187878686866040518663ffffffff1660e01b81526004016120d99594939291906130b6565b602060405180830381600087803b1580156120f357600080fd5b505af192505050801561212457506040513d601f19601f820116820180604052508101906121219190612cd7565b60015b6121ca576121306137c7565b806308c379a0141561218d5750612145613c82565b80612150575061218f565b806040517f08c379a000000000000000000000000000000000000000000000000000000000815260040161218491906131ec565b60405180910390fd5b505b6040517f08c379a00000000000000000000000000000000000000000000000000000000081526004016121c19061320e565b60405180910390fd5b63bc197c8160e01b7bffffffffffffffffffffffffffffffffffffffffffffffffffffffff1916817bffffffffffffffffffffffffffffffffffffffffffffffffffffffff191614612251576040517f08c379a00000000000000000000000000000000000000000000000000000000081526004016122489061322e565b60405180910390fd5b505b505050505050565b60606000600167ffffffffffffffff8111156122a0577f4e487b7100000000000000000000000000000000000000000000000000000000600052604160045260246000fd5b6040519080825280602002602001820160405280156122ce5781602001602082028036833780820191505090505b509050828160008151811061230c577f4e487b7100000000000000000000000000000000000000000000000000000000600052603260045260246000fd5b60200260200101818152505080915050919050565b6123408473ffffffffffffffffffffffffffffffffffffffff16612508565b15612500578373ffffffffffffffffffffffffffffffffffffffff1663f23a6e6187878686866040518663ffffffff1660e01b815260040161238695949392919061311e565b602060405180830381600087803b1580156123a057600080fd5b505af19250505080156123d157506040513d601f19601f820116820180604052508101906123ce9190612cd7565b60015b612477576123dd6137c7565b806308c379a0141561243a57506123f2613c82565b806123fd575061243c565b806040517f08c379a000000000000000000000000000000000000000000000000000000000815260040161243191906131ec565b60405180910390fd5b505b6040517f08c379a000000000000000000000000000000000000000000000000000000000815260040161246e9061320e565b60405180910390fd5b63f23a6e6160e01b7bffffffffffffffffffffffffffffffffffffffffffffffffffffffff1916817bffffffffffffffffffffffffffffffffffffffffffffffffffffffff1916146124fe576040517f08c379a00000000000000000000000000000000000000000000000000000000081526004016124f59061322e565b60405180910390fd5b505b505050505050565b600080823b905060008111915050919050565b8280546125279061368e565b90600052602060002090601f0160209004810192826125495760008555612590565b82601f1061256257805160ff1916838001178555612590565b82800160010185558215612590579182015b8281111561258f578251825591602001919060010190612574565b5b50905061259d91906125a1565b5090565b5b808211156125ba5760008160009055506001016125a2565b5090565b60006125d16125cc84613457565b613432565b905080838252602082019050828560208602820111156125f057600080fd5b60005b8581101561262057816126068882612712565b8452602084019350602083019250506001810190506125f3565b5050509392505050565b600061263d61263884613483565b613432565b9050808382526020820190508285602086028201111561265c57600080fd5b60005b8581101561268c5781612672888261280e565b84526020840193506020830192505060018101905061265f565b5050509392505050565b60006126a96126a4846134af565b613432565b9050828152602081018484840111156126c157600080fd5b6126cc84828561364c565b509392505050565b60006126e76126e2846134e0565b613432565b9050828152602081018484840111156126ff57600080fd5b61270a84828561364c565b509392505050565b60008135905061272181613d18565b92915050565b600082601f83011261273857600080fd5b81356127488482602086016125be565b91505092915050565b600082601f83011261276257600080fd5b813561277284826020860161262a565b91505092915050565b60008135905061278a81613d2f565b92915050565b60008135905061279f81613d46565b92915050565b6000815190506127b481613d46565b92915050565b600082601f8301126127cb57600080fd5b81356127db848260208601612696565b91505092915050565b600082601f8301126127f557600080fd5b81356128058482602086016126d4565b91505092915050565b60008135905061281d81613d5d565b92915050565b60006020828403121561283557600080fd5b600061284384828501612712565b91505092915050565b6000806040838503121561285f57600080fd5b600061286d85828601612712565b925050602061287e85828601612712565b9150509250929050565b600080600080600060a086880312156128a057600080fd5b60006128ae88828901612712565b95505060206128bf88828901612712565b945050604086013567ffffffffffffffff8111156128dc57600080fd5b6128e888828901612751565b935050606086013567ffffffffffffffff81111561290557600080fd5b61291188828901612751565b925050608086013567ffffffffffffffff81111561292e57600080fd5b61293a888289016127ba565b9150509295509295909350565b600080600080600060a0868803121561295f57600080fd5b600061296d88828901612712565b955050602061297e88828901612712565b945050604061298f8882890161280e565b93505060606129a08882890161280e565b925050608086013567ffffffffffffffff8111156129bd57600080fd5b6129c9888289016127ba565b9150509295509295909350565b6000806000606084860312156129eb57600080fd5b60006129f986828701612712565b935050602084013567ffffffffffffffff811115612a1657600080fd5b612a2286828701612751565b925050604084013567ffffffffffffffff811115612a3f57600080fd5b612a4b86828701612751565b9150509250925092565b60008060008060808587031215612a6b57600080fd5b6000612a7987828801612712565b945050602085013567ffffffffffffffff811115612a9657600080fd5b612aa287828801612751565b935050604085013567ffffffffffffffff811115612abf57600080fd5b612acb87828801612751565b925050606085013567ffffffffffffffff811115612ae857600080fd5b612af4878288016127ba565b91505092959194509250565b60008060408385031215612b1357600080fd5b6000612b2185828601612712565b9250506020612b328582860161277b565b9150509250929050565b60008060408385031215612b4f57600080fd5b6000612b5d85828601612712565b9250506020612b6e8582860161280e565b9150509250929050565b600080600060608486031215612b8d57600080fd5b6000612b9b86828701612712565b9350506020612bac8682870161280e565b9250506040612bbd8682870161280e565b9150509250925092565b60008060008060808587031215612bdd57600080fd5b6000612beb87828801612712565b9450506020612bfc8782880161280e565b9350506040612c0d8782880161280e565b925050606085013567ffffffffffffffff811115612c2a57600080fd5b612c36878288016127ba565b91505092959194509250565b60008060408385031215612c5557600080fd5b600083013567ffffffffffffffff811115612c6f57600080fd5b612c7b85828601612727565b925050602083013567ffffffffffffffff811115612c9857600080fd5b612ca485828601612751565b9150509250929050565b600060208284031215612cc057600080fd5b6000612cce84828501612790565b91505092915050565b600060208284031215612ce957600080fd5b6000612cf7848285016127a5565b91505092915050565b600060208284031215612d1257600080fd5b600082013567ffffffffffffffff811115612d2c57600080fd5b612d38848285016127e4565b91505092915050565b600060208284031215612d5357600080fd5b6000612d618482850161280e565b91505092915050565b6000612d76838361307d565b60208301905092915050565b612d8b816135d8565b82525050565b6000612d9c82613521565b612da6818561354f565b9350612db183613511565b8060005b83811015612de2578151612dc98882612d6a565b9750612dd483613542565b925050600181019050612db5565b5085935050505092915050565b612df8816135ea565b82525050565b6000612e098261352c565b612e138185613560565b9350612e2381856020860161365b565b612e2c816137e9565b840191505092915050565b6000612e4282613537565b612e4c8185613571565b9350612e5c81856020860161365b565b612e65816137e9565b840191505092915050565b6000612e7d603483613571565b9150612e8882613807565b604082019050919050565b6000612ea0602883613571565b9150612eab82613856565b604082019050919050565b6000612ec3602b83613571565b9150612ece826138a5565b604082019050919050565b6000612ee6602683613571565b9150612ef1826138f4565b604082019050919050565b6000612f09602483613571565b9150612f1482613943565b604082019050919050565b6000612f2c602983613571565b9150612f3782613992565b604082019050919050565b6000612f4f602583613571565b9150612f5a826139e1565b604082019050919050565b6000612f72603283613571565b9150612f7d82613a30565b604082019050919050565b6000612f95602383613571565b9150612fa082613a7f565b604082019050919050565b6000612fb8602a83613571565b9150612fc382613ace565b604082019050919050565b6000612fdb602083613571565b9150612fe682613b1d565b602082019050919050565b6000612ffe602983613571565b915061300982613b46565b604082019050919050565b6000613021602983613571565b915061302c82613b95565b604082019050919050565b6000613044602883613571565b915061304f82613be4565b604082019050919050565b6000613067602183613571565b915061307282613c33565b604082019050919050565b61308681613642565b82525050565b61309581613642565b82525050565b60006020820190506130b06000830184612d82565b92915050565b600060a0820190506130cb6000830188612d82565b6130d86020830187612d82565b81810360408301526130ea8186612d91565b905081810360608301526130fe8185612d91565b905081810360808301526131128184612dfe565b90509695505050505050565b600060a0820190506131336000830188612d82565b6131406020830187612d82565b61314d604083018661308c565b61315a606083018561308c565b818103608083015261316c8184612dfe565b90509695505050505050565b600060208201905081810360008301526131928184612d91565b905092915050565b600060408201905081810360008301526131b48185612d91565b905081810360208301526131c88184612d91565b90509392505050565b60006020820190506131e66000830184612def565b92915050565b600060208201905081810360008301526132068184612e37565b905092915050565b6000602082019050818103600083015261322781612e70565b9050919050565b6000602082019050818103600083015261324781612e93565b9050919050565b6000602082019050818103600083015261326781612eb6565b9050919050565b6000602082019050818103600083015261328781612ed9565b9050919050565b600060208201905081810360008301526132a781612efc565b9050919050565b600060208201905081810360008301526132c781612f1f565b9050919050565b600060208201905081810360008301526132e781612f42565b9050919050565b6000602082019050818103600083015261330781612f65565b9050919050565b6000602082019050818103600083015261332781612f88565b9050919050565b6000602082019050818103600083015261334781612fab565b9050919050565b6000602082019050818103600083015261336781612fce565b9050919050565b6000602082019050818103600083015261338781612ff1565b9050919050565b600060208201905081810360008301526133a781613014565b9050919050565b600060208201905081810360008301526133c781613037565b9050919050565b600060208201905081810360008301526133e78161305a565b9050919050565b6000602082019050613403600083018461308c565b92915050565b600060408201905061341e600083018561308c565b61342b602083018461308c565b9392505050565b600061343c61344d565b905061344882826136c0565b919050565b6000604051905090565b600067ffffffffffffffff82111561347257613471613798565b5b602082029050602081019050919050565b600067ffffffffffffffff82111561349e5761349d613798565b5b602082029050602081019050919050565b600067ffffffffffffffff8211156134ca576134c9613798565b5b6134d3826137e9565b9050602081019050919050565b600067ffffffffffffffff8211156134fb576134fa613798565b5b613504826137e9565b9050602081019050919050565b6000819050602082019050919050565b600081519050919050565b600081519050919050565b600081519050919050565b6000602082019050919050565b600082825260208201905092915050565b600082825260208201905092915050565b600082825260208201905092915050565b600061358d82613642565b915061359883613642565b9250827fffffffffffffffffffffffffffffffffffffffffffffffffffffffffffffffff038211156135cd576135cc61373a565b5b828201905092915050565b60006135e382613622565b9050919050565b60008115159050919050565b60007fffffffff0000000000000000000000000000000000000000000000000000000082169050919050565b600073ffffffffffffffffffffffffffffffffffffffff82169050919050565b6000819050919050565b82818337600083830152505050565b60005b8381101561367957808201518184015260208101905061365e565b83811115613688576000848401525b50505050565b600060028204905060018216806136a657607f821691505b602082108114156136ba576136b9613769565b5b50919050565b6136c9826137e9565b810181811067ffffffffffffffff821117156136e8576136e7613798565b5b80604052505050565b60006136fc82613642565b91507fffffffffffffffffffffffffffffffffffffffffffffffffffffffffffffffff82141561372f5761372e61373a565b5b600182019050919050565b7f4e487b7100000000000000000000000000000000000000000000000000000000600052601160045260246000fd5b7f4e487b7100000000000000000000000000000000000000000000000000000000600052602260045260246000fd5b7f4e487b7100000000000000000000000000000000000000000000000000000000600052604160045260246000fd5b600060033d11156137e65760046000803e6137e36000516137fa565b90505b90565b6000601f19601f8301169050919050565b60008160e01c9050919050565b7f455243313135353a207472616e7366657220746f206e6f6e204552433131353560008201527f526563656976657220696d706c656d656e746572000000000000000000000000602082015250565b7f455243313135353a204552433131353552656365697665722072656a6563746560008201527f6420746f6b656e73000000000000000000000000000000000000000000000000602082015250565b7f455243313135353a2062616c616e636520717565727920666f7220746865207a60008201527f65726f2061646472657373000000000000000000000000000000000000000000602082015250565b7f4f776e61626c653a206e6577206f776e657220697320746865207a65726f206160008201527f6464726573730000000000000000000000000000000000000000000000000000602082015250565b7f455243313135353a206275726e20616d6f756e7420657863656564732062616c60008201527f616e636500000000000000000000000000000000000000000000000000000000602082015250565b7f455243313135353a2063616c6c6572206973206e6f74206f776e6572206e6f7260008201527f20617070726f7665640000000000000000000000000000000000000000000000602082015250565b7f455243313135353a207472616e7366657220746f20746865207a65726f20616460008201527f6472657373000000000000000000000000000000000000000000000000000000602082015250565b7f455243313135353a207472616e736665722063616c6c6572206973206e6f742060008201527f6f776e6572206e6f7220617070726f7665640000000000000000000000000000602082015250565b7f455243313135353a206275726e2066726f6d20746865207a65726f206164647260008201527f6573730000000000000000000000000000000000000000000000000000000000602082015250565b7f455243313135353a20696e73756666696369656e742062616c616e636520666f60008201527f72207472616e7366657200000000000000000000000000000000000000000000602082015250565b7f4f776e61626c653a2063616c6c6572206973206e6f7420746865206f776e6572600082015250565b7f455243313135353a2073657474696e6720617070726f76616c2073746174757360008201527f20666f722073656c660000000000000000000000000000000000000000000000602082015250565b7f455243313135353a206163636f756e747320616e6420696473206c656e67746860008201527f206d69736d617463680000000000000000000000000000000000000000000000602082015250565b7f455243313135353a2069647320616e6420616d6f756e7473206c656e6774682060008201527f6d69736d61746368000000000000000000000000000000000000000000000000602082015250565b7f455243313135353a206d696e7420746f20746865207a65726f2061646472657360008201527f7300000000000000000000000000000000000000000000000000000000000000602082015250565b600060443d1015613c9257613d15565b613c9a61344d565b60043d036004823e80513d602482011167ffffffffffffffff82111715613cc2575050613d15565b808201805167ffffffffffffffff811115613ce05750505050613d15565b80602083010160043d038501811115613cfd575050505050613d15565b613d0c826020018501866136c0565b82955050505050505b90565b613d21816135d8565b8114613d2c57600080fd5b50565b613d38816135ea565b8114613d4357600080fd5b50565b613d4f816135f6565b8114613d5a57600080fd5b50565b613d6681613642565b8114613d7157600080fd5b5056fea2646970667358221220d38061da7dc734d6f670fdfbc840a412802ab69b50bf915ee9e5defb982822ca64736f6c63430008040033",
    "linkReferences": {},
    "deployedLinkReferences": {}
}